{
  "contractName": "Inbox",
  "abi": [
    {
      "inputs": [],
      "payable": false,
      "stateMutability": "nonpayable",
      "type": "constructor"
    },
    {
      "anonymous": false,
      "inputs": [
        {
          "indexed": false,
          "internalType": "string",
          "name": "response",
          "type": "string"
        }
      ],
      "name": "inboxResponse",
      "type": "event"
    },
    {
      "anonymous": false,
      "inputs": [
        {
          "indexed": false,
          "internalType": "string",
          "name": "_ipfsHash",
          "type": "string"
        },
        {
          "indexed": false,
          "internalType": "string",
          "name": "_address",
          "type": "string"
        }
      ],
      "name": "ipfsSent",
      "type": "event"
    },
    {
      "anonymous": false,
      "inputs": [
        {
          "indexed": false,
          "internalType": "address",
          "name": "from",
          "type": "address"
        },
        {
          "indexed": false,
          "internalType": "address",
          "name": "to",
          "type": "address"
        },
        {
          "indexed": false,
          "internalType": "string",
          "name": "message",
          "type": "string"
        }
      ],
      "name": "messageSend",
      "type": "event"
    },
    {
      "constant": true,
      "inputs": [
        {
          "internalType": "string",
          "name": "",
          "type": "string"
        }
      ],
      "name": "ipfsInbox",
      "outputs": [
        {
          "internalType": "string",
          "name": "",
          "type": "string"
        }
      ],
      "payable": false,
      "stateMutability": "view",
      "type": "function"
    },
    {
      "constant": true,
      "inputs": [
        {
          "internalType": "address",
          "name": "",
          "type": "address"
        }
      ],
      "name": "messageAddress",
      "outputs": [
        {
          "internalType": "uint256",
          "name": "id",
          "type": "uint256"
        },
        {
          "internalType": "string",
          "name": "message",
          "type": "string"
        },
        {
          "internalType": "address",
          "name": "from",
          "type": "address"
        },
        {
          "internalType": "address",
          "name": "to",
          "type": "address"
        },
        {
          "internalType": "uint256",
          "name": "value",
          "type": "uint256"
        }
      ],
      "payable": false,
      "stateMutability": "view",
      "type": "function"
    },
    {
      "constant": true,
      "inputs": [],
      "name": "minter",
      "outputs": [
        {
          "internalType": "address",
          "name": "",
          "type": "address"
        }
      ],
      "payable": false,
      "stateMutability": "view",
      "type": "function"
    },
    {
      "constant": false,
      "inputs": [
        {
          "internalType": "string",
          "name": "_address",
          "type": "string"
        },
        {
          "internalType": "string",
          "name": "_ipfsHash",
          "type": "string"
        }
      ],
      "name": "sendIPFS",
      "outputs": [],
      "payable": false,
      "stateMutability": "nonpayable",
      "type": "function"
    },
    {
      "constant": true,
      "inputs": [
        {
          "internalType": "string",
          "name": "_address",
          "type": "string"
        }
      ],
      "name": "getHash",
      "outputs": [
        {
          "internalType": "string",
          "name": "",
          "type": "string"
        }
      ],
      "payable": false,
      "stateMutability": "view",
      "type": "function"
    },
    {
      "constant": false,
      "inputs": [
        {
          "components": [
            {
              "internalType": "uint256",
              "name": "id",
              "type": "uint256"
            },
            {
              "internalType": "string",
              "name": "message",
              "type": "string"
            },
            {
              "internalType": "address",
              "name": "from",
              "type": "address"
            },
            {
              "internalType": "address",
              "name": "to",
              "type": "address"
            },
            {
              "internalType": "uint256",
              "name": "value",
              "type": "uint256"
            }
          ],
          "internalType": "struct Inbox.Message",
          "name": "message",
          "type": "tuple"
        }
      ],
      "name": "setMessage",
      "outputs": [],
      "payable": false,
      "stateMutability": "nonpayable",
      "type": "function"
    },
    {
      "constant": true,
      "inputs": [
        {
          "internalType": "address",
          "name": "received",
          "type": "address"
        }
      ],
      "name": "getMessage",
      "outputs": [
        {
          "components": [
            {
              "internalType": "uint256",
              "name": "id",
              "type": "uint256"
            },
            {
              "internalType": "string",
              "name": "message",
              "type": "string"
            },
            {
              "internalType": "address",
              "name": "from",
              "type": "address"
            },
            {
              "internalType": "address",
              "name": "to",
              "type": "address"
            },
            {
              "internalType": "uint256",
              "name": "value",
              "type": "uint256"
            }
          ],
          "internalType": "struct Inbox.Message",
          "name": "",
          "type": "tuple"
        }
      ],
      "payable": false,
      "stateMutability": "view",
      "type": "function"
    }
  ],
  "bytecode": "0x608060405234801561001057600080fd5b5033600260006101000a81548173ffffffffffffffffffffffffffffffffffffffff021916908373ffffffffffffffffffffffffffffffffffffffff160217905550611373806100616000396000f3fe608060405234801561001057600080fd5b506004361061007d5760003560e01c80634aa969a31161005b5780634aa969a3146100d857806355448fe11461010c5780635b6beeb91461013c578063d9fb97f71461016c5761007d565b806307546172146100825780633bc86509146100a057806343662c42146100bc575b600080fd5b61008a61019c565b604051610097919061101b565b60405180910390f35b6100ba60048036036100b59190810190610d49565b6101c2565b005b6100d660048036036100d19190810190610db5565b6102fe565b005b6100f260048036036100ed9190810190610c9e565b6104de565b604051610103959493929190611151565b60405180910390f35b61012660048036036101219190810190610c9e565b6105ec565b604051610133919061112f565b60405180910390f35b61015660048036036101519190810190610d08565b610821565b6040516101639190611096565b60405180910390f35b61018660048036036101819190810190610cc7565b6108e6565b6040516101939190611074565b60405180910390f35b600260009054906101000a900473ffffffffffffffffffffffffffffffffffffffff1681565b6000826040516101d29190611004565b90815260200160405180910390208054600181600116156101000203166002900480601f0160208091040260200160405190810160405280929190818152602001828054600181600116156101000203166002900480156102745780601f1061024957610100808354040283529160200191610274565b820191906000526020600020905b81548152906001019060200180831161025757829003601f168201915b50505050506060819050600081511461028c57600080fd5b8260008560405161029d9190611004565b908152602001604051809103902090805190602001906102be9291906109ac565b507fe20751acac1c1604f322f90c67a302e99b44a472645e625269c08832cded234083856040516102f09291906110b8565b60405180910390a150505050565b600260009054906101000a900473ffffffffffffffffffffffffffffffffffffffff1673ffffffffffffffffffffffffffffffffffffffff163373ffffffffffffffffffffffffffffffffffffffff161461038e576040517f08c379a00000000000000000000000000000000000000000000000000000000081526004016103859061110f565b60405180910390fd5b8060016000836060015173ffffffffffffffffffffffffffffffffffffffff1673ffffffffffffffffffffffffffffffffffffffff1681526020019081526020016000206000820151816000015560208201518160010190805190602001906103f8929190610a2c565b5060408201518160020160006101000a81548173ffffffffffffffffffffffffffffffffffffffff021916908373ffffffffffffffffffffffffffffffffffffffff16021790555060608201518160030160006101000a81548173ffffffffffffffffffffffffffffffffffffffff021916908373ffffffffffffffffffffffffffffffffffffffff160217905550608082015181600401559050507fac714f7c840b56a112ae491a7112330044df1cec07d1f19cebec20cb68142d408160400151826060015183602001516040516104d393929190611036565b60405180910390a150565b6001602052806000526040600020600091509050806000015490806001018054600181600116156101000203166002900480601f0160208091040260200160405190810160405280929190818152602001828054600181600116156101000203166002900480156105905780601f1061056557610100808354040283529160200191610590565b820191906000526020600020905b81548152906001019060200180831161057357829003601f168201915b5050505050908060020160009054906101000a900473ffffffffffffffffffffffffffffffffffffffff16908060030160009054906101000a900473ffffffffffffffffffffffffffffffffffffffff16908060040154905085565b6105f4610aac565b3373ffffffffffffffffffffffffffffffffffffffff168273ffffffffffffffffffffffffffffffffffffffff1614610662576040517f08c379a0000000000000000000000000000000000000000000000000000000008152600401610659906110ef565b60405180910390fd5b61066a610aac565b600160008473ffffffffffffffffffffffffffffffffffffffff1673ffffffffffffffffffffffffffffffffffffffff1681526020019081526020016000206040518060a001604052908160008201548152602001600182018054600181600116156101000203166002900480601f0160208091040260200160405190810160405280929190818152602001828054600181600116156101000203166002900480156107575780601f1061072c57610100808354040283529160200191610757565b820191906000526020600020905b81548152906001019060200180831161073a57829003601f168201915b505050505081526020016002820160009054906101000a900473ffffffffffffffffffffffffffffffffffffffff1673ffffffffffffffffffffffffffffffffffffffff1673ffffffffffffffffffffffffffffffffffffffff1681526020016003820160009054906101000a900473ffffffffffffffffffffffffffffffffffffffff1673ffffffffffffffffffffffffffffffffffffffff1673ffffffffffffffffffffffffffffffffffffffff168152602001600482015481525050905080915050919050565b6060806000836040516108349190611004565b90815260200160405180910390208054600181600116156101000203166002900480601f0160208091040260200160405190810160405280929190818152602001828054600181600116156101000203166002900480156108d65780601f106108ab576101008083540402835291602001916108d6565b820191906000526020600020905b8154815290600101906020018083116108b957829003601f168201915b5050505050905080915050919050565b6000818051602081018201805184825260208301602085012081835280955050505050506000915090508054600181600116156101000203166002900480601f0160208091040260200160405190810160405280929190818152602001828054600181600116156101000203166002900480156109a45780601f10610979576101008083540402835291602001916109a4565b820191906000526020600020905b81548152906001019060200180831161098757829003601f168201915b505050505081565b828054600181600116156101000203166002900490600052602060002090601f016020900481019282601f106109ed57805160ff1916838001178555610a1b565b82800160010185558215610a1b579182015b82811115610a1a5782518255916020019190600101906109ff565b5b509050610a289190610b07565b5090565b828054600181600116156101000203166002900490600052602060002090601f016020900481019282601f10610a6d57805160ff1916838001178555610a9b565b82800160010185558215610a9b579182015b82811115610a9a578251825591602001919060010190610a7f565b5b509050610aa89190610b07565b5090565b6040518060a001604052806000815260200160608152602001600073ffffffffffffffffffffffffffffffffffffffff168152602001600073ffffffffffffffffffffffffffffffffffffffff168152602001600081525090565b610b2991905b80821115610b25576000816000905550600101610b0d565b5090565b90565b600081359050610b3b81611302565b92915050565b600082601f830112610b5257600080fd5b8135610b65610b60826111d8565b6111ab565b91508082526020830160208301858383011115610b8157600080fd5b610b8c8382846112af565b50505092915050565b600082601f830112610ba657600080fd5b8135610bb9610bb482611204565b6111ab565b91508082526020830160208301858383011115610bd557600080fd5b610be08382846112af565b50505092915050565b600060a08284031215610bfb57600080fd5b610c0560a06111ab565b90506000610c1584828501610c89565b600083015250602082013567ffffffffffffffff811115610c3557600080fd5b610c4184828501610b41565b6020830152506040610c5584828501610b2c565b6040830152506060610c6984828501610b2c565b6060830152506080610c7d84828501610c89565b60808301525092915050565b600081359050610c9881611319565b92915050565b600060208284031215610cb057600080fd5b6000610cbe84828501610b2c565b91505092915050565b600060208284031215610cd957600080fd5b600082013567ffffffffffffffff811115610cf357600080fd5b610cff84828501610b41565b91505092915050565b600060208284031215610d1a57600080fd5b600082013567ffffffffffffffff811115610d3457600080fd5b610d4084828501610b95565b91505092915050565b60008060408385031215610d5c57600080fd5b600083013567ffffffffffffffff811115610d7657600080fd5b610d8285828601610b95565b925050602083013567ffffffffffffffff811115610d9f57600080fd5b610dab85828601610b95565b9150509250929050565b600060208284031215610dc757600080fd5b600082013567ffffffffffffffff811115610de157600080fd5b610ded84828501610be9565b91505092915050565b610dff81611273565b82525050565b610e0e81611273565b82525050565b6000610e1f8261123b565b610e298185611257565b9350610e398185602086016112be565b610e42816112f1565b840191505092915050565b6000610e588261123b565b610e628185611268565b9350610e728185602086016112be565b80840191505092915050565b6000610e8982611230565b610e938185611246565b9350610ea38185602086016112be565b610eac816112f1565b840191505092915050565b6000610ec282611230565b610ecc8185611257565b9350610edc8185602086016112be565b610ee5816112f1565b840191505092915050565b6000610efd600f83611257565b91507f4e6f74207065726d697373696f6e7300000000000000000000000000000000006000830152602082019050919050565b6000610f3d601f83611257565b91507f4f6e6c79206f776e6572732063616e2062652073656e64206d657373616765006000830152602082019050919050565b600060a083016000830151610f886000860182610fe6565b5060208301518482036020860152610fa08282610e7e565b9150506040830151610fb56040860182610df6565b506060830151610fc86060860182610df6565b506080830151610fdb6080860182610fe6565b508091505092915050565b610fef816112a5565b82525050565b610ffe816112a5565b82525050565b60006110108284610e4d565b915081905092915050565b60006020820190506110306000830184610e05565b92915050565b600060608201905061104b6000830186610e05565b6110586020830185610e05565b818103604083015261106a8184610eb7565b9050949350505050565b6000602082019050818103600083015261108e8184610eb7565b905092915050565b600060208201905081810360008301526110b08184610e14565b905092915050565b600060408201905081810360008301526110d28185610e14565b905081810360208301526110e68184610e14565b90509392505050565b6000602082019050818103600083015261110881610ef0565b9050919050565b6000602082019050818103600083015261112881610f30565b9050919050565b600060208201905081810360008301526111498184610f70565b905092915050565b600060a0820190506111666000830188610ff5565b81810360208301526111788187610eb7565b90506111876040830186610e05565b6111946060830185610e05565b6111a16080830184610ff5565b9695505050505050565b6000604051905081810181811067ffffffffffffffff821117156111ce57600080fd5b8060405250919050565b600067ffffffffffffffff8211156111ef57600080fd5b601f19601f8301169050602081019050919050565b600067ffffffffffffffff82111561121b57600080fd5b601f19601f8301169050602081019050919050565b600081519050919050565b600081519050919050565b600082825260208201905092915050565b600082825260208201905092915050565b600081905092915050565b600061127e82611285565b9050919050565b600073ffffffffffffffffffffffffffffffffffffffff82169050919050565b6000819050919050565b82818337600083830152505050565b60005b838110156112dc5780820151818401526020810190506112c1565b838111156112eb576000848401525b50505050565b6000601f19601f8301169050919050565b61130b81611273565b811461131657600080fd5b50565b611322816112a5565b811461132d57600080fd5b5056fea365627a7a72315820cb1e0a37a35681025626e2faa16ce4100ec055cbd6b2ee731b1f666d37bf2f356c6578706572696d656e74616cf564736f6c63430005100040",
  "source": "pragma solidity >=0.4.22 <0.9.0;\npragma experimental ABIEncoderV2;\n\ncontract Inbox {\n    struct Message {\n        uint256 id;\n        string message;\n        address from;\n        address to;\n        uint256 value;\n    }\n    //Structure\n    mapping(string => string) public ipfsInbox;\n    mapping(address => Message) public messageAddress;\n\n    //Events\n    event ipfsSent(string _ipfsHash, string _address);\n    event messageSend(address from, address to, string message);\n    event inboxResponse(string response);\n\n    address public minter;\n\n    //Modifiers\n    modifier notFull(string memory _string) {\n        bytes memory stringTest = bytes(_string);\n        require(stringTest.length == 0);\n        _;\n    }\n\n    // An empty constructor that creates an instance of the conteact\n    constructor() public {\n        minter = msg.sender;\n    }\n\n    //takes in receiver's address and IPFS hash. Places the IPFSadress in the receiver's inbox\n    function sendIPFS(string memory _address, string memory _ipfsHash)\n        public\n        notFull(ipfsInbox[_address])\n    {\n        ipfsInbox[_address] = _ipfsHash;\n        emit ipfsSent(_ipfsHash, _address);\n    }\n\n    //retrieves hash\n    function getHash(string memory _address)\n        public\n        view\n        returns (string memory)\n    {\n        string memory ipfs_hash = ipfsInbox[_address];\n        //emit inboxResponse(ipfs_hash);\n        return ipfs_hash;\n    }\n\n    function setMessage(Message memory message) public {\n        require(msg.sender == minter, \"Only owners can be send message\");\n        messageAddress[message.to] = message;\n        emit messageSend(message.from, message.to, message.message);\n    }\n\n    function getMessage(address received) public view returns (Message memory) {\n        require(received == msg.sender, \"Not permissions\");\n        Message memory message = messageAddress[received];\n        return message;\n    }\n}\n",
  "sourcePath": "/Volumes/SSD EXTERNO/Luby/Blockchain/MusicProject/backend/contracts/Inbox.sol",
  "compiler": {
    "name": "solc",
    "version": "0.5.16+commit.9c3226ce.Emscripten.clang"
  },
  "schemaVersion": "3.4.4",
  "updatedAt": "2022-02-28T21:34:53.202Z",
  "networkType": "ethereum",
  "devdoc": {
    "methods": {}
  },
  "userdoc": {
    "methods": {}
  }
}